{
  "contractName": "Donation",
  "abi": [
    {
      "anonymous": false,
      "inputs": [
        {
          "indexed": false,
          "internalType": "uint256",
          "name": "postid",
          "type": "uint256"
        },
        {
          "indexed": false,
          "internalType": "address",
          "name": "author",
          "type": "address"
        },
        {
          "indexed": false,
          "internalType": "string",
          "name": "postURI",
          "type": "string"
        }
      ],
      "name": "PostCreated",
      "type": "event"
    },
    {
      "anonymous": false,
      "inputs": [
        {
          "indexed": false,
          "internalType": "uint256",
          "name": "amount",
          "type": "uint256"
        },
        {
          "indexed": false,
          "internalType": "address",
          "name": "creator",
          "type": "address"
        }
      ],
      "name": "TipReceived",
      "type": "event"
    },
    {
      "anonymous": false,
      "inputs": [
        {
          "components": [
            {
              "internalType": "uint256",
              "name": "postid",
              "type": "uint256"
            },
            {
              "internalType": "address",
              "name": "author",
              "type": "address"
            },
            {
              "internalType": "string",
              "name": "postURI",
              "type": "string"
            }
          ],
          "indexed": false,
          "internalType": "struct Donation.Post",
          "name": "p",
          "type": "tuple"
        }
      ],
      "name": "callpost",
      "type": "event"
    },
    {
      "inputs": [],
      "name": "_postsId",
      "outputs": [
        {
          "internalType": "uint256",
          "name": "_value",
          "type": "uint256"
        }
      ],
      "stateMutability": "view",
      "type": "function",
      "constant": true
    },
    {
      "inputs": [
        {
          "internalType": "address",
          "name": "",
          "type": "address"
        }
      ],
      "name": "creators",
      "outputs": [
        {
          "internalType": "address",
          "name": "author",
          "type": "address"
        },
        {
          "internalType": "uint256",
          "name": "balance",
          "type": "uint256"
        },
        {
          "internalType": "uint256",
          "name": "supporters",
          "type": "uint256"
        },
        {
          "internalType": "bool",
          "name": "exists",
          "type": "bool"
        }
      ],
      "stateMutability": "view",
      "type": "function",
      "constant": true
    },
    {
      "inputs": [
        {
          "internalType": "uint256",
          "name": "",
          "type": "uint256"
        }
      ],
      "name": "idToPost",
      "outputs": [
        {
          "internalType": "uint256",
          "name": "postid",
          "type": "uint256"
        },
        {
          "internalType": "address",
          "name": "author",
          "type": "address"
        },
        {
          "internalType": "string",
          "name": "postURI",
          "type": "string"
        }
      ],
      "stateMutability": "view",
      "type": "function",
      "constant": true
    },
    {
      "stateMutability": "payable",
      "type": "receive",
      "payable": true
    },
    {
      "inputs": [
        {
          "internalType": "string",
          "name": "postURI",
          "type": "string"
        }
      ],
      "name": "createPost",
      "outputs": [
        {
          "components": [
            {
              "internalType": "uint256",
              "name": "postid",
              "type": "uint256"
            },
            {
              "internalType": "address",
              "name": "author",
              "type": "address"
            },
            {
              "internalType": "string",
              "name": "postURI",
              "type": "string"
            }
          ],
          "internalType": "struct Donation.Post",
          "name": "",
          "type": "tuple"
        }
      ],
      "stateMutability": "nonpayable",
      "type": "function"
    },
    {
      "inputs": [],
      "name": "fetchAllPosts",
      "outputs": [
        {
          "components": [
            {
              "internalType": "uint256",
              "name": "postid",
              "type": "uint256"
            },
            {
              "internalType": "address",
              "name": "author",
              "type": "address"
            },
            {
              "internalType": "string",
              "name": "postURI",
              "type": "string"
            }
          ],
          "internalType": "struct Donation.Post[]",
          "name": "",
          "type": "tuple[]"
        }
      ],
      "stateMutability": "view",
      "type": "function",
      "constant": true
    },
    {
      "inputs": [
        {
          "internalType": "address",
          "name": "_creator",
          "type": "address"
        }
      ],
      "name": "donate",
      "outputs": [],
      "stateMutability": "payable",
      "type": "function",
      "payable": true
    }
  ],
  "bytecode": "0x608060405273ad6d458402f60fd3bd25163575031acdce07538d600260006101000a81548173ffffffffffffffffffffffffffffffffffffffff021916908373ffffffffffffffffffffffffffffffffffffffff160217905550737a250d5630b4cf539739df2c5dacb4c659f2488d600360006101000a81548173ffffffffffffffffffffffffffffffffffffffff021916908373ffffffffffffffffffffffffffffffffffffffff16021790555073c778417e063141139fce010982780140aa0cd5ab600460006101000a81548173ffffffffffffffffffffffffffffffffffffffff021916908373ffffffffffffffffffffffffffffffffffffffff160217905550600360009054906101000a900473ffffffffffffffffffffffffffffffffffffffff16600560006101000a81548173ffffffffffffffffffffffffffffffffffffffff021916908373ffffffffffffffffffffffffffffffffffffffff16021790555034801561017257600080fd5b50611e16806101826000396000f3fe6080604052600436106100585760003560e01c8062362a9514610064578063028d70611461008057806321a94903146100ab57806340aeda7e146100ea578063933166e114610115578063c7303c61146101555761005f565b3661005f57005b600080fd5b61007e600480360381019061007991906110d2565b610192565b005b34801561008c57600080fd5b50610095610547565b6040516100a291906112d2565b60405180910390f35b3480156100b757600080fd5b506100d260048036038101906100cd9190611320565b610710565b6040516100e1939291906113b5565b60405180910390f35b3480156100f657600080fd5b506100ff6107e2565b60405161010c91906113f3565b60405180910390f35b34801561012157600080fd5b5061013c600480360381019061013791906110d2565b6107ee565b60405161014c9493929190611429565b60405180910390f35b34801561016157600080fd5b5061017c600480360381019061017791906115a3565b61084b565b604051610189919061163c565b60405180910390f35b600034116101d5576040517f08c379a00000000000000000000000000000000000000000000000000000000081526004016101cc906116aa565b60405180910390fd5b343373ffffffffffffffffffffffffffffffffffffffff1631101561022f576040517f08c379a000000000000000000000000000000000000000000000000000000000815260040161022690611716565b60405180910390fd5b8073ffffffffffffffffffffffffffffffffffffffff163373ffffffffffffffffffffffffffffffffffffffff16141561029e576040517f08c379a000000000000000000000000000000000000000000000000000000000815260040161029590611782565b60405180910390fd5b600460009054906101000a900473ffffffffffffffffffffffffffffffffffffffff1673ffffffffffffffffffffffffffffffffffffffff1663095ea7b3600360009054906101000a900473ffffffffffffffffffffffffffffffffffffffff16346040518363ffffffff1660e01b815260040161031d9291906117a2565b602060405180830381600087803b15801561033757600080fd5b505af115801561034b573d6000803e3d6000fd5b505050506040513d601f19601f8201168201806040525081019061036f91906117f7565b50600061037b34610c7d565b90506000610387610d78565b9050600560009054906101000a900473ffffffffffffffffffffffffffffffffffffffff1673ffffffffffffffffffffffffffffffffffffffff1663fb3bdb41348484876103df601442610eb090919063ffffffff16565b6040518663ffffffff1660e01b81526004016103fe94939291906118d3565b6000604051808303818588803b15801561041757600080fd5b505af115801561042b573d6000803e3d6000fd5b50505050506040513d6000823e3d601f19601f8201168201806040525081019061045591906119fc565b5081600660008573ffffffffffffffffffffffffffffffffffffffff1673ffffffffffffffffffffffffffffffffffffffff16815260200190815260200160002060010160008282546104a89190611a74565b925050819055506001600660008573ffffffffffffffffffffffffffffffffffffffff1673ffffffffffffffffffffffffffffffffffffffff16815260200190815260200160002060020160008282546105029190611a74565b925050819055507fc9744582970998c0a027dca0862cc1275bb99250a3a4665035c1a4b52acd6916828460405161053a929190611aca565b60405180910390a1505050565b606060006105556000610f09565b905060008167ffffffffffffffff81111561057357610572611478565b5b6040519080825280602002602001820160405280156105ac57816020015b610599610f86565b8152602001906001900390816105915790505b50905060005b8281101561070757600760006001836105cb9190611a74565b8152602001908152602001600020604051806060016040529081600082015481526020016001820160009054906101000a900473ffffffffffffffffffffffffffffffffffffffff1673ffffffffffffffffffffffffffffffffffffffff1673ffffffffffffffffffffffffffffffffffffffff16815260200160028201805461065490611b22565b80601f016020809104026020016040519081016040528092919081815260200182805461068090611b22565b80156106cd5780601f106106a2576101008083540402835291602001916106cd565b820191906000526020600020905b8154815290600101906020018083116106b057829003601f168201915b5050505050815250508282815181106106e9576106e8611b54565b5b602002602001018190525080806106ff90611b83565b9150506105b2565b50809250505090565b60076020528060005260406000206000915090508060000154908060010160009054906101000a900473ffffffffffffffffffffffffffffffffffffffff169080600201805461075f90611b22565b80601f016020809104026020016040519081016040528092919081815260200182805461078b90611b22565b80156107d85780601f106107ad576101008083540402835291602001916107d8565b820191906000526020600020905b8154815290600101906020018083116107bb57829003601f168201915b5050505050905083565b60008060000154905081565b60066020528060005260406000206000915090508060000160009054906101000a900473ffffffffffffffffffffffffffffffffffffffff16908060010154908060020154908060030160009054906101000a900460ff16905084565b610853610f86565b6000825111610897576040517f08c379a000000000000000000000000000000000000000000000000000000000815260040161088e90611c18565b60405180910390fd5b600073ffffffffffffffffffffffffffffffffffffffff163373ffffffffffffffffffffffffffffffffffffffff161415610907576040517f08c379a00000000000000000000000000000000000000000000000000000000081526004016108fe90611c84565b60405180910390fd5b60001515600660003373ffffffffffffffffffffffffffffffffffffffff1673ffffffffffffffffffffffffffffffffffffffff16815260200190815260200160002060030160009054906101000a900460ff1615151415610a5d5760405180608001604052803373ffffffffffffffffffffffffffffffffffffffff168152602001600081526020016000815260200160011515815250600660003373ffffffffffffffffffffffffffffffffffffffff1673ffffffffffffffffffffffffffffffffffffffff16815260200190815260200160002060008201518160000160006101000a81548173ffffffffffffffffffffffffffffffffffffffff021916908373ffffffffffffffffffffffffffffffffffffffff160217905550602082015181600101556040820151816002015560608201518160030160006101000a81548160ff0219169083151502179055509050505b610a676000610f17565b6000610a736000610f09565b905060405180606001604052808281526020013373ffffffffffffffffffffffffffffffffffffffff16815260200184815250600760008381526020019081526020016000206000820151816000015560208201518160010160006101000a81548173ffffffffffffffffffffffffffffffffffffffff021916908373ffffffffffffffffffffffffffffffffffffffff1602179055506040820151816002019080519060200190610b26929190610fbd565b509050507f8e40a51278abe2f4b410c0a96ff0bdd024b22666ca334062bf72afd596984bd6813385604051610b5d939291906113b5565b60405180910390a160076000828152602001908152602001600020604051806060016040529081600082015481526020016001820160009054906101000a900473ffffffffffffffffffffffffffffffffffffffff1673ffffffffffffffffffffffffffffffffffffffff1673ffffffffffffffffffffffffffffffffffffffff168152602001600282018054610bf390611b22565b80601f0160208091040260200160405190810160405280929190818152602001828054610c1f90611b22565b8015610c6c5780601f10610c4157610100808354040283529160200191610c6c565b820191906000526020600020905b815481529060010190602001808311610c4f57829003601f168201915b505050505081525050915050919050565b600080610c88610d78565b90506000600560009054906101000a900473ffffffffffffffffffffffffffffffffffffffff1673ffffffffffffffffffffffffffffffffffffffff1663d06ca61f85846040518363ffffffff1660e01b8152600401610ce9929190611ca4565b60006040518083038186803b158015610d0157600080fd5b505afa158015610d15573d6000803e3d6000fd5b505050506040513d6000823e3d601f19601f82011682018060405250810190610d3e91906119fc565b905080610d5660018451610f2d90919063ffffffff16565b81518110610d6757610d66611b54565b5b602002602001015192505050919050565b606080600267ffffffffffffffff811115610d9657610d95611478565b5b604051908082528060200260200182016040528015610dc45781602001602082028036833780820191505090505b509050600460009054906101000a900473ffffffffffffffffffffffffffffffffffffffff1681600081518110610dfe57610dfd611b54565b5b602002602001019073ffffffffffffffffffffffffffffffffffffffff16908173ffffffffffffffffffffffffffffffffffffffff1681525050600260009054906101000a900473ffffffffffffffffffffffffffffffffffffffff1681600181518110610e6f57610e6e611b54565b5b602002602001019073ffffffffffffffffffffffffffffffffffffffff16908173ffffffffffffffffffffffffffffffffffffffff16815250508091505090565b6000828284610ebf9190611a74565b9150811015610f03576040517f08c379a0000000000000000000000000000000000000000000000000000000008152600401610efa90611d20565b60405180910390fd5b92915050565b600081600001549050919050565b6001816000016000828254019250508190555050565b6000828284610f3c9190611d40565b9150811115610f80576040517f08c379a0000000000000000000000000000000000000000000000000000000008152600401610f7790611dc0565b60405180910390fd5b92915050565b604051806060016040528060008152602001600073ffffffffffffffffffffffffffffffffffffffff168152602001606081525090565b828054610fc990611b22565b90600052602060002090601f016020900481019282610feb5760008555611032565b82601f1061100457805160ff1916838001178555611032565b82800160010185558215611032579182015b82811115611031578251825591602001919060010190611016565b5b50905061103f9190611043565b5090565b5b8082111561105c576000816000905550600101611044565b5090565b6000604051905090565b600080fd5b600080fd5b600073ffffffffffffffffffffffffffffffffffffffff82169050919050565b600061109f82611074565b9050919050565b6110af81611094565b81146110ba57600080fd5b50565b6000813590506110cc816110a6565b92915050565b6000602082840312156110e8576110e761106a565b5b60006110f6848285016110bd565b91505092915050565b600081519050919050565b600082825260208201905092915050565b6000819050602082019050919050565b6000819050919050565b61113e8161112b565b82525050565b61114d81611094565b82525050565b600081519050919050565b600082825260208201905092915050565b60005b8381101561118d578082015181840152602081019050611172565b8381111561119c576000848401525b50505050565b6000601f19601f8301169050919050565b60006111be82611153565b6111c8818561115e565b93506111d881856020860161116f565b6111e1816111a2565b840191505092915050565b60006060830160008301516112046000860182611135565b5060208301516112176020860182611144565b506040830151848203604086015261122f82826111b3565b9150508091505092915050565b600061124883836111ec565b905092915050565b6000602082019050919050565b6000611268826110ff565b611272818561110a565b9350836020820285016112848561111b565b8060005b858110156112c057848403895281516112a1858261123c565b94506112ac83611250565b925060208a01995050600181019050611288565b50829750879550505050505092915050565b600060208201905081810360008301526112ec818461125d565b905092915050565b6112fd8161112b565b811461130857600080fd5b50565b60008135905061131a816112f4565b92915050565b6000602082840312156113365761133561106a565b5b60006113448482850161130b565b91505092915050565b6113568161112b565b82525050565b61136581611094565b82525050565b600082825260208201905092915050565b600061138782611153565b611391818561136b565b93506113a181856020860161116f565b6113aa816111a2565b840191505092915050565b60006060820190506113ca600083018661134d565b6113d7602083018561135c565b81810360408301526113e9818461137c565b9050949350505050565b6000602082019050611408600083018461134d565b92915050565b60008115159050919050565b6114238161140e565b82525050565b600060808201905061143e600083018761135c565b61144b602083018661134d565b611458604083018561134d565b611465606083018461141a565b95945050505050565b600080fd5b600080fd5b7f4e487b7100000000000000000000000000000000000000000000000000000000600052604160045260246000fd5b6114b0826111a2565b810181811067ffffffffffffffff821117156114cf576114ce611478565b5b80604052505050565b60006114e2611060565b90506114ee82826114a7565b919050565b600067ffffffffffffffff82111561150e5761150d611478565b5b611517826111a2565b9050602081019050919050565b82818337600083830152505050565b6000611546611541846114f3565b6114d8565b90508281526020810184848401111561156257611561611473565b5b61156d848285611524565b509392505050565b600082601f83011261158a5761158961146e565b5b813561159a848260208601611533565b91505092915050565b6000602082840312156115b9576115b861106a565b5b600082013567ffffffffffffffff8111156115d7576115d661106f565b5b6115e384828501611575565b91505092915050565b60006060830160008301516116046000860182611135565b5060208301516116176020860182611144565b506040830151848203604086015261162f82826111b3565b9150508091505092915050565b6000602082019050818103600083015261165681846115ec565b905092915050565b7f416d6f756e742073686f756c642062652067726561746572207468616e20302e600082015250565b600061169460208361136b565b915061169f8261165e565b602082019050919050565b600060208201905081810360008301526116c381611687565b9050919050565b7f4e6f7420656e6f7567682062616c616e63650000000000000000000000000000600082015250565b600061170060128361136b565b915061170b826116ca565b602082019050919050565b6000602082019050818103600083015261172f816116f3565b9050919050565b7f43726561746f722063616e206e6f7420636f6e74726962757465000000000000600082015250565b600061176c601a8361136b565b915061177782611736565b602082019050919050565b6000602082019050818103600083015261179b8161175f565b9050919050565b60006040820190506117b7600083018561135c565b6117c4602083018461134d565b9392505050565b6117d48161140e565b81146117df57600080fd5b50565b6000815190506117f1816117cb565b92915050565b60006020828403121561180d5761180c61106a565b5b600061181b848285016117e2565b91505092915050565b600081519050919050565b600082825260208201905092915050565b6000819050602082019050919050565b600061185c8383611144565b60208301905092915050565b6000602082019050919050565b600061188082611824565b61188a818561182f565b935061189583611840565b8060005b838110156118c65781516118ad8882611850565b97506118b883611868565b925050600181019050611899565b5085935050505092915050565b60006080820190506118e8600083018761134d565b81810360208301526118fa8186611875565b9050611909604083018561135c565b611916606083018461134d565b95945050505050565b600067ffffffffffffffff82111561193a57611939611478565b5b602082029050602081019050919050565b600080fd5b60008151905061195f816112f4565b92915050565b60006119786119738461191f565b6114d8565b9050808382526020820190506020840283018581111561199b5761199a61194b565b5b835b818110156119c457806119b08882611950565b84526020840193505060208101905061199d565b5050509392505050565b600082601f8301126119e3576119e261146e565b5b81516119f3848260208601611965565b91505092915050565b600060208284031215611a1257611a1161106a565b5b600082015167ffffffffffffffff811115611a3057611a2f61106f565b5b611a3c848285016119ce565b91505092915050565b7f4e487b7100000000000000000000000000000000000000000000000000000000600052601160045260246000fd5b6000611a7f8261112b565b9150611a8a8361112b565b9250827fffffffffffffffffffffffffffffffffffffffffffffffffffffffffffffffff03821115611abf57611abe611a45565b5b828201905092915050565b6000604082019050611adf600083018561134d565b611aec602083018461135c565b9392505050565b7f4e487b7100000000000000000000000000000000000000000000000000000000600052602260045260246000fd5b60006002820490506001821680611b3a57607f821691505b60208210811415611b4e57611b4d611af3565b5b50919050565b7f4e487b7100000000000000000000000000000000000000000000000000000000600052603260045260246000fd5b6000611b8e8261112b565b91507fffffffffffffffffffffffffffffffffffffffffffffffffffffffffffffffff821415611bc157611bc0611a45565b5b600182019050919050565b7f506f737420555249206578697374730000000000000000000000000000000000600082015250565b6000611c02600f8361136b565b9150611c0d82611bcc565b602082019050919050565b60006020820190508181036000830152611c3181611bf5565b9050919050565b7f53656e6400000000000000000000000000000000000000000000000000000000600082015250565b6000611c6e60048361136b565b9150611c7982611c38565b602082019050919050565b60006020820190508181036000830152611c9d81611c61565b9050919050565b6000604082019050611cb9600083018561134d565b8181036020830152611ccb8184611875565b90509392505050565b7f64732d6d6174682d6164642d6f766572666c6f77000000000000000000000000600082015250565b6000611d0a60148361136b565b9150611d1582611cd4565b602082019050919050565b60006020820190508181036000830152611d3981611cfd565b9050919050565b6000611d4b8261112b565b9150611d568361112b565b925082821015611d6957611d68611a45565b5b828203905092915050565b7f64732d6d6174682d7375622d756e646572666c6f770000000000000000000000600082015250565b6000611daa60158361136b565b9150611db582611d74565b602082019050919050565b60006020820190508181036000830152611dd981611d9d565b905091905056fea2646970667358221220b7f989e4e20898c359b0c3ec4e78491eccb8d6db37d32332982e44a888f8253b64736f6c63430008090033",
  "immutableReferences": {},
  "source": "// SPDX-License-Identifier: MIT\npragma solidity ^0.8.1;\n\nimport \"@openzeppelin/contracts/utils/Counters.sol\";\nimport \"@openzeppelin/contracts/token/ERC20/ERC20.sol\";\n\nlibrary SafeMath {\n    function add(uint256 x, uint256 y) internal pure returns (uint256 z) {\n        require((z = x + y) >= x, \"ds-math-add-overflow\");\n    }\n\n    function sub(uint256 x, uint256 y) internal pure returns (uint256 z) {\n        require((z = x - y) <= x, \"ds-math-sub-underflow\");\n    }\n\n    function mul(uint256 x, uint256 y) internal pure returns (uint256 z) {\n        require(y == 0 || (z = x * y) / y == x, \"ds-math-mul-overflow\");\n    }\n}\n\ninterface IUniswapV2Router {\n    function swapETHForExactTokens(\n        uint256 amountOut,\n        address[] calldata path,\n        address to,\n        uint256 deadline\n    ) external payable returns (uint256[] memory amounts);\n\n    function getAmountsOut(uint256 amountIn, address[] calldata path)\n        external\n        view\n        returns (uint256[] memory amounts);\n}\n\n// interface IERC20 {\n//     function approve(address spender, uint256 amount) external returns (bool);\n\n//     function transferFrom(\n//         address from,\n//         address to,\n//         uint256 value\n//     ) external returns (bool);\n// }\n\ncontract Donation {\n    using SafeMath for uint256;\n    using Counters for Counters.Counter;\n\n    Counters.Counter public _postsId;\n    Counters.Counter private _creatorsId;\n\n    // address private DAI = 0xDD2C1fB2b9c5D5500b8Da6B817504589e9eBe12f; // polygon mainnet\n    address private DAI = 0xaD6D458402F60fD3Bd25163575031ACDce07538D; // ropsten\n\n    // address private UniswapV2Router02 =\n    //     0xa5E0829CaCEd8fFDD4De3c43696c57F7D7A678ff; //polygon mainnet\n    address private UniswapV2Router02 =\n        0x7a250d5630B4cF539739dF2C5dAcb4c659F2488D; //   ropsten\n\n    // address private WMATIC = 0x0d500B1d8E8eF31E21C99d1Db9A6444d3ADf1270; // polygon mainnet\n    address private WETH = 0xc778417E063141139Fce010982780140Aa0cD5Ab; // ropsten\n\n    IUniswapV2Router uniswapRouter = IUniswapV2Router(UniswapV2Router02);\n\n    mapping(address => Creator) public creators;\n\n    struct Post {\n        uint256 postid;\n        address author;\n        string postURI;\n    }\n\n    struct Creator {\n        address author;\n        uint256 balance; // balance here is amount gotten  through our platform\n        uint256 supporters;\n        bool exists;\n    }\n\n    mapping(uint256 => Post) public idToPost;\n\n    event PostCreated(uint256 postid, address author, string postURI);\n\n    event TipReceived(uint256 amount, address creator);\n\n    event callpost(Post p);\n\n    function createPost(string memory postURI) public returns (Post memory) {\n        require(bytes(postURI).length > 0, \"Post URI exists\");\n        require(msg.sender != address(0), \"Send\");\n\n        if (creators[msg.sender].exists == false) {\n            creators[msg.sender] = Creator(msg.sender, 0, 0, true);\n        }\n\n        _postsId.increment();\n        uint256 currentPostId = _postsId.current();\n\n        idToPost[currentPostId] = Post(currentPostId, msg.sender, postURI);\n\n        emit PostCreated(currentPostId, msg.sender, postURI);\n        return idToPost[currentPostId];\n    }\n\n    function fetchAllPosts() public view returns (Post[] memory) {\n        uint256 postCount = _postsId.current();\n\n        Post[] memory posts = new Post[](postCount);\n\n        for (uint256 i = 0; i < postCount; i++) {\n            posts[i] = idToPost[i + 1];\n        }\n        return posts;\n    }\n\n    function donate(address _creator) external payable {\n        require(msg.value > 0, \"Amount should be greater than 0.\");\n        require(msg.sender.balance >= msg.value, \"Not enough balance\");\n        require(msg.sender != _creator, \"Creator can not contribute\");\n\n        IERC20(WETH).approve(UniswapV2Router02, msg.value);\n        uint256 amountOut = getAmountOutMin(msg.value);\n        address[] memory path = getPath();\n\n        uniswapRouter.swapETHForExactTokens{value: msg.value}(\n            amountOut,\n            path,\n            _creator,\n            block.timestamp.add(20)\n        );\n\n        creators[_creator].balance += amountOut;\n        creators[_creator].supporters += 1;\n\n        emit TipReceived(amountOut, _creator);\n    }\n\n    function getAmountOutMin(uint256 amountIn) internal view returns (uint256) {\n        address[] memory path = getPath();\n        uint256[] memory amountOutMins = uniswapRouter.getAmountsOut(\n            amountIn,\n            path\n        );\n        return amountOutMins[path.length.sub(1)];\n    }\n\n    function getPath() internal view returns (address[] memory) {\n        address[] memory path;\n\n        path = new address[](2);\n        path[0] = WETH;\n        path[1] = DAI;\n\n        return path;\n    }\n\n    receive() external payable {}\n}\n",
  "sourcePath": "/Users/udittakkar/projects/curators/contracts/Donation.sol",
  "compiler": {
    "name": "solc",
    "version": "0.8.9+commit.e5eed63a.Emscripten.clang"
  },
  "schemaVersion": "3.4.3",
  "updatedAt": "2021-10-25T08:12:10.902Z",
  "networkType": "ethereum",
  "devdoc": {
    "kind": "dev",
    "methods": {},
    "version": 1
  },
  "userdoc": {
    "kind": "user",
    "methods": {},
    "version": 1
  }
}